{
  "_format": "hh-sol-artifact-1",
  "contractName": "Voting",
  "sourceName": "contracts/Voting.sol",
  "abi": [
    {
      "inputs": [
        {
          "internalType": "string[]",
          "name": "candidateNames",
          "type": "string[]"
        }
      ],
      "stateMutability": "nonpayable",
      "type": "constructor"
    },
    {
      "anonymous": false,
      "inputs": [],
      "name": "VoteEnded",
      "type": "event"
    },
    {
      "anonymous": false,
      "inputs": [
        {
          "indexed": false,
          "internalType": "address",
          "name": "voter_",
          "type": "address"
        }
      ],
      "name": "Voted",
      "type": "event"
    },
    {
      "inputs": [
        {
          "internalType": "address",
          "name": "voterAddress",
          "type": "address"
        }
      ],
      "name": "ForOwnerGetVoterScores",
      "outputs": [
        {
          "internalType": "uint256[]",
          "name": "",
          "type": "uint256[]"
        }
      ],
      "stateMutability": "view",
      "type": "function"
    },
    {
      "inputs": [],
      "name": "endVoting",
      "outputs": [
        {
          "internalType": "string",
          "name": "winner_",
          "type": "string"
        }
      ],
      "stateMutability": "nonpayable",
      "type": "function"
    },
    {
      "inputs": [
        {
          "internalType": "string",
          "name": "CandidateName",
          "type": "string"
        }
      ],
      "name": "getIndividualResults",
      "outputs": [
        {
          "internalType": "string",
          "name": "MedianValue",
          "type": "string"
        },
        {
          "internalType": "uint256",
          "name": "Rank",
          "type": "uint256"
        },
        {
          "internalType": "uint256[]",
          "name": "ScoreGet",
          "type": "uint256[]"
        }
      ],
      "stateMutability": "view",
      "type": "function"
    },
    {
      "inputs": [],
      "name": "getResults",
      "outputs": [
        {
          "internalType": "string[]",
          "name": "names",
          "type": "string[]"
        },
        {
          "internalType": "uint256[]",
          "name": "medians",
          "type": "uint256[]"
        },
        {
          "internalType": "uint256[]",
          "name": "ranks",
          "type": "uint256[]"
        }
      ],
      "stateMutability": "view",
      "type": "function"
    },
    {
      "inputs": [],
      "name": "getVoterScores",
      "outputs": [
        {
          "internalType": "uint256[]",
          "name": "",
          "type": "uint256[]"
        }
      ],
      "stateMutability": "view",
      "type": "function"
    },
    {
      "inputs": [],
      "name": "getWinner",
      "outputs": [
        {
          "internalType": "string",
          "name": "winnerName",
          "type": "string"
        }
      ],
      "stateMutability": "view",
      "type": "function"
    },
    {
      "inputs": [],
      "name": "numOfVoters",
      "outputs": [
        {
          "internalType": "uint256",
          "name": "",
          "type": "uint256"
        }
      ],
      "stateMutability": "view",
      "type": "function"
    },
    {
      "inputs": [],
      "name": "owner",
      "outputs": [
        {
          "internalType": "address",
          "name": "",
          "type": "address"
        }
      ],
      "stateMutability": "view",
      "type": "function"
    },
    {
      "inputs": [
        {
          "internalType": "uint256[]",
          "name": "_scores",
          "type": "uint256[]"
        }
      ],
      "name": "vote",
      "outputs": [],
      "stateMutability": "nonpayable",
      "type": "function"
    },
    {
      "inputs": [],
      "name": "voteEnded",
      "outputs": [
        {
          "internalType": "bool",
          "name": "",
          "type": "bool"
        }
      ],
      "stateMutability": "view",
      "type": "function"
    }
  ],
  "bytecode": "0x608060405260008060146101000a81548160ff02191690831515021790555060006001553480156200003057600080fd5b506040516200477738038062004777833981810160405281019062000056919062000667565b336000806101000a81548173ffffffffffffffffffffffffffffffffffffffff021916908373ffffffffffffffffffffffffffffffffffffffff16021790555060005b8151811015620002675760026040518060400160405280848481518110620000c657620000c5620006b8565b5b60200260200101518152602001600067ffffffffffffffff811115620000f157620000f0620003f8565b5b604051908082528060200260200182016040528015620001205781602001602082028036833780820191505090505b50815250908060018154018082558091505060019003906000526020600020906002020160009091909190915060008201518160000190805190602001906200016b929190620002cc565b5060208201518160010190805190602001906200018a9291906200035d565b50505060006001826200019e919062000720565b90505b82518110156200025057620001f7838381518110620001c557620001c4620006b8565b5b6020026020010151848381518110620001e357620001e2620006b8565b5b60200260200101516200026f60201b60201c565b156200023a576040517f08c379a0000000000000000000000000000000000000000000000000000000008152600401620002319062000804565b60405180910390fd5b8080620002479062000826565b915050620001a1565b5080806200025e9062000826565b91505062000099565b50506200093f565b600081604051602001620002849190620008c1565b6040516020818303038152906040528051906020012083604051602001620002ad9190620008c1565b6040516020818303038152906040528051906020012014905092915050565b828054620002da9062000909565b90600052602060002090601f016020900481019282620002fe57600085556200034a565b82601f106200031957805160ff19168380011785556200034a565b828001600101855582156200034a579182015b82811115620003495782518255916020019190600101906200032c565b5b509050620003599190620003af565b5090565b8280548282559060005260206000209081019282156200039c579160200282015b828111156200039b5782518255916020019190600101906200037e565b5b509050620003ab9190620003af565b5090565b5b80821115620003ca576000816000905550600101620003b0565b5090565b6000604051905090565b600080fd5b600080fd5b600080fd5b6000601f19601f8301169050919050565b7f4e487b7100000000000000000000000000000000000000000000000000000000600052604160045260246000fd5b6200043282620003e7565b810181811067ffffffffffffffff82111715620004545762000453620003f8565b5b80604052505050565b600062000469620003ce565b905062000477828262000427565b919050565b600067ffffffffffffffff8211156200049a5762000499620003f8565b5b602082029050602081019050919050565b600080fd5b600080fd5b600067ffffffffffffffff821115620004d357620004d2620003f8565b5b620004de82620003e7565b9050602081019050919050565b60005b838110156200050b578082015181840152602081019050620004ee565b838111156200051b576000848401525b50505050565b6000620005386200053284620004b5565b6200045d565b905082815260208101848484011115620005575762000556620004b0565b5b62000564848285620004eb565b509392505050565b600082601f830112620005845762000583620003e2565b5b81516200059684826020860162000521565b91505092915050565b6000620005b6620005b0846200047c565b6200045d565b90508083825260208201905060208402830185811115620005dc57620005db620004ab565b5b835b818110156200062a57805167ffffffffffffffff811115620006055762000604620003e2565b5b8086016200061489826200056c565b85526020850194505050602081019050620005de565b5050509392505050565b600082601f8301126200064c576200064b620003e2565b5b81516200065e8482602086016200059f565b91505092915050565b60006020828403121562000680576200067f620003d8565b5b600082015167ffffffffffffffff811115620006a157620006a0620003dd565b5b620006af8482850162000634565b91505092915050565b7f4e487b7100000000000000000000000000000000000000000000000000000000600052603260045260246000fd5b6000819050919050565b7f4e487b7100000000000000000000000000000000000000000000000000000000600052601160045260246000fd5b60006200072d82620006e7565b91506200073a83620006e7565b9250827fffffffffffffffffffffffffffffffffffffffffffffffffffffffffffffffff03821115620007725762000771620006f1565b5b828201905092915050565b600082825260208201905092915050565b7f456163682063616e6469646174652773206e616d65206d75737420626520646960008201527f66666572656e7400000000000000000000000000000000000000000000000000602082015250565b6000620007ec6027836200077d565b9150620007f9826200078e565b604082019050919050565b600060208201905081810360008301526200081f81620007dd565b9050919050565b60006200083382620006e7565b91507fffffffffffffffffffffffffffffffffffffffffffffffffffffffffffffffff821415620008695762000868620006f1565b5b600182019050919050565b600081519050919050565b600081905092915050565b6000620008978262000874565b620008a381856200087f565b9350620008b5818560208601620004eb565b80840191505092915050565b6000620008cf82846200088a565b915081905092915050565b7f4e487b7100000000000000000000000000000000000000000000000000000000600052602260045260246000fd5b600060028204905060018216806200092257607f821691505b60208210811415620009395762000938620008da565b5b50919050565b613e28806200094f6000396000f3fe608060405234801561001057600080fd5b506004361061009e5760003560e01c80638f903cb0116100665780638f903cb01461014d57806398f0b34c1461016b578063c3403ddf14610189578063ce11f2bb146101a7578063ed70f4fd146101c35761009e565b80630deeca6c146100a35780634717f97c146100c157806384397121146100e15780638da5cb5b146101115780638e7ea5b21461012f575b600080fd5b6100ab6101f5565b6040516100b8919061301f565b60405180910390f35b6100c9610208565b6040516100d89392919061325d565b60405180910390f35b6100fb60048036038101906100f6919061331b565b61105f565b6040516101089190613348565b60405180910390f35b6101196111de565b6040516101269190613379565b60405180910390f35b610137611202565b60405161014491906133de565b60405180910390f35b610155611324565b6040516101629190613348565b60405180910390f35b610173611413565b604051610180919061340f565b60405180910390f35b610191611419565b60405161019e91906133de565b60405180910390f35b6101c160048036038101906101bc919061359e565b6115c2565b005b6101dd60048036038101906101d8919061369c565b611a8f565b6040516101ec939291906136e5565b60405180910390f35b600060149054906101000a900460ff1681565b6060806060600060028054905067ffffffffffffffff81111561022e5761022d61342f565b5b60405190808252806020026020018201604052801561025c5781602001602082028036833780820191505090505b509050600060028054905067ffffffffffffffff8111156102805761027f61342f565b5b6040519080825280602002602001820160405280156102ae5781602001602082028036833780820191505090505b50905060028054905067ffffffffffffffff8111156102d0576102cf61342f565b5b60405190808252806020026020018201604052801561030357816020015b60608152602001906001900390816102ee5790505b50945060006002905060005b6002805490508110156104ed5781600282815481106103315761033061372a565b5b90600052602060002090600202016001018054905010156103725760008482815181106103615761036061372a565b5b60200260200101818152505061040e565b6103ee600282815481106103895761038861372a565b5b90600052602060002090600202016001018054806020026020016040519081016040528092919081815260200182805480156103e457602002820191906000526020600020905b8154815260200190600101908083116103d0575b50505050506129cc565b8482815181106104015761040061372a565b5b6020026020010181815250505b600281815481106104225761042161372a565b5b9060005260206000209060020201600001805461043e90613788565b80601f016020809104026020016040519081016040528092919081815260200182805461046a90613788565b80156104b75780601f1061048c576101008083540402835291602001916104b7565b820191906000526020600020905b81548152906001019060200180831161049a57829003601f168201915b50505050508782815181106104cf576104ce61372a565b5b602002602001018190525080806104e5906137e9565b91505061030f565b5060005b6002805490508110156110505760006001905060005b600280549050811015610ff2578583815181106105275761052661372a565b5b60200260200101518682815181106105425761054161372a565b5b6020026020010151111561056357818061055b906137e9565b925050610fdf565b8583815181106105765761057561372a565b5b60200260200101518682815181106105915761059061372a565b5b60200260200101511415610fde5761061b600284815481106105b6576105b561372a565b5b906000526020600020906002020160010180548060200260200160405190810160405280929190818152602001828054801561061157602002820191906000526020600020905b8154815260200190600101908083116105fd575b5050505050612b75565b610697600285815481106106325761063161372a565b5b906000526020600020906002020160010180548060200260200160405190810160405280929190818152602001828054801561068d57602002820191906000526020600020905b815481526020019060010190808311610679575b5050505050612bfb565b108015610799575061071b600282815481106106b6576106b561372a565b5b906000526020600020906002020160010180548060200260200160405190810160405280929190818152602001828054801561071157602002820191906000526020600020905b8154815260200190600101908083116106fd575b5050505050612b75565b610797600283815481106107325761073161372a565b5b906000526020600020906002020160010180548060200260200160405190810160405280929190818152602001828054801561078d57602002820191906000526020600020905b815481526020019060010190808311610779575b5050505050612bfb565b115b156107b15781806107a9906137e9565b925050610fdd565b61082d600284815481106107c8576107c761372a565b5b906000526020600020906002020160010180548060200260200160405190810160405280929190818152602001828054801561082357602002820191906000526020600020905b81548152602001906001019080831161080f575b5050505050612b75565b6108a9600285815481106108445761084361372a565b5b906000526020600020906002020160010180548060200260200160405190810160405280929190818152602001828054801561089f57602002820191906000526020600020905b81548152602001906001019080831161088b575b5050505050612bfb565b1180156109ab575061092d600282815481106108c8576108c761372a565b5b906000526020600020906002020160010180548060200260200160405190810160405280929190818152602001828054801561092357602002820191906000526020600020905b81548152602001906001019080831161090f575b5050505050612b75565b6109a9600283815481106109445761094361372a565b5b906000526020600020906002020160010180548060200260200160405190810160405280929190818152602001828054801561099f57602002820191906000526020600020905b81548152602001906001019080831161098b575b5050505050612bfb565b105b156109b557610fdc565b610a31600284815481106109cc576109cb61372a565b5b9060005260206000209060020201600101805480602002602001604051908101604052809291908181526020018280548015610a2757602002820191906000526020600020905b815481526020019060010190808311610a13575b5050505050612b75565b610aad60028581548110610a4857610a4761372a565b5b9060005260206000209060020201600101805480602002602001604051908101604052809291908181526020018280548015610aa357602002820191906000526020600020905b815481526020019060010190808311610a8f575b5050505050612bfb565b11158015610bb15750610b3260028281548110610acd57610acc61372a565b5b9060005260206000209060020201600101805480602002602001604051908101604052809291908181526020018280548015610b2857602002820191906000526020600020905b815481526020019060010190808311610b14575b5050505050612b75565b610bae60028381548110610b4957610b4861372a565b5b9060005260206000209060020201600101805480602002602001604051908101604052809291908181526020018280548015610ba457602002820191906000526020600020905b815481526020019060010190808311610b90575b5050505050612bfb565b11155b15610cc857610c3260028281548110610bcd57610bcc61372a565b5b9060005260206000209060020201600101805480602002602001604051908101604052809291908181526020018280548015610c2857602002820191906000526020600020905b815481526020019060010190808311610c14575b5050505050612c81565b610cae60028581548110610c4957610c4861372a565b5b9060005260206000209060020201600101805480602002602001604051908101604052809291908181526020018280548015610ca457602002820191906000526020600020905b815481526020019060010190808311610c90575b5050505050612c81565b1115610cc3578180610cbf906137e9565b9250505b610fdb565b610d4460028481548110610cdf57610cde61372a565b5b9060005260206000209060020201600101805480602002602001604051908101604052809291908181526020018280548015610d3a57602002820191906000526020600020905b815481526020019060010190808311610d26575b5050505050612b75565b610dc060028581548110610d5b57610d5a61372a565b5b9060005260206000209060020201600101805480602002602001604051908101604052809291908181526020018280548015610db657602002820191906000526020600020905b815481526020019060010190808311610da2575b5050505050612bfb565b118015610ec25750610e4460028281548110610ddf57610dde61372a565b5b9060005260206000209060020201600101805480602002602001604051908101604052809291908181526020018280548015610e3a57602002820191906000526020600020905b815481526020019060010190808311610e26575b5050505050612b75565b610ec060028381548110610e5b57610e5a61372a565b5b9060005260206000209060020201600101805480602002602001604051908101604052809291908181526020018280548015610eb657602002820191906000526020600020905b815481526020019060010190808311610ea2575b5050505050612bfb565b115b15610fd957610f4360028281548110610ede57610edd61372a565b5b9060005260206000209060020201600101805480602002602001604051908101604052809291908181526020018280548015610f3957602002820191906000526020600020905b815481526020019060010190808311610f25575b5050505050612d08565b610fbf60028581548110610f5a57610f5961372a565b5b9060005260206000209060020201600101805480602002602001604051908101604052809291908181526020018280548015610fb557602002820191906000526020600020905b815481526020019060010190808311610fa1575b5050505050612d08565b1015610fd4578180610fd0906137e9565b9250505b610fda565b5b5b5b5b5b5b8080610fea906137e9565b915050610507565b5060008583815181106110085761100761372a565b5b6020026020010151141561101c5761271090505b808483815181106110305761102f61372a565b5b602002602001018181525050508080611048906137e9565b9150506104f1565b50829450819350505050909192565b606060008054906101000a900473ffffffffffffffffffffffffffffffffffffffff1673ffffffffffffffffffffffffffffffffffffffff163373ffffffffffffffffffffffffffffffffffffffff16146110ef576040517f08c379a00000000000000000000000000000000000000000000000000000000081526004016110e69061387e565b60405180910390fd5b6000600360008473ffffffffffffffffffffffffffffffffffffffff1673ffffffffffffffffffffffffffffffffffffffff16815260200190815260200160002090508060000160009054906101000a900460ff16611183576040517f08c379a000000000000000000000000000000000000000000000000000000000815260040161117a906138ea565b60405180910390fd5b806001018054806020026020016040519081016040528092919081815260200182805480156111d157602002820191906000526020600020905b8154815260200190600101908083116111bd575b5050505050915050919050565b60008054906101000a900473ffffffffffffffffffffffffffffffffffffffff1681565b6060600061120e610208565b92505050805161121f826001612d8f565b1415611260576040517f08c379a0000000000000000000000000000000000000000000000000000000008152600401611257906139a2565b60405180910390fd5b600061126d826001612d8f565b9050600281815481106112835761128261372a565b5b9060005260206000209060020201600001805461129f90613788565b80601f01602080910402602001604051908101604052809291908181526020018280546112cb90613788565b80156113185780601f106112ed57610100808354040283529160200191611318565b820191906000526020600020905b8154815290600101906020018083116112fb57829003601f168201915b50505050509250505090565b60606000600360003373ffffffffffffffffffffffffffffffffffffffff1673ffffffffffffffffffffffffffffffffffffffff16815260200190815260200160002090508060000160009054906101000a900460ff166113ba576040517f08c379a00000000000000000000000000000000000000000000000000000000081526004016113b190613a0e565b60405180910390fd5b8060010180548060200260200160405190810160405280929190818152602001828054801561140857602002820191906000526020600020905b8154815260200190600101908083116113f4575b505050505091505090565b60015481565b606060008054906101000a900473ffffffffffffffffffffffffffffffffffffffff1673ffffffffffffffffffffffffffffffffffffffff163373ffffffffffffffffffffffffffffffffffffffff16146114a9576040517f08c379a00000000000000000000000000000000000000000000000000000000081526004016114a09061387e565b60405180910390fd5b6001600060146101000a81548160ff0219169083151502179055507f58a587d218b5732ea4aa95fdc9c2449c467d58b36fc81f672e3f5db07d49e98960405160405180910390a160006114fa610208565b92505050600061150b826001612d8f565b9050600281815481106115215761152061372a565b5b9060005260206000209060020201600001805461153d90613788565b80601f016020809104026020016040519081016040528092919081815260200182805461156990613788565b80156115b65780601f1061158b576101008083540402835291602001916115b6565b820191906000526020600020905b81548152906001019060200180831161159957829003601f168201915b50505050509250505090565b600060149054906101000a900460ff1615611612576040517f08c379a000000000000000000000000000000000000000000000000000000000815260040161160990613a7a565b60405180910390fd5b6000600360003373ffffffffffffffffffffffffffffffffffffffff1673ffffffffffffffffffffffffffffffffffffffff16815260200190815260200160002090508060000160009054906101000a900460ff16156116a7576040517f08c379a000000000000000000000000000000000000000000000000000000000815260040161169e90613ae6565b60405180910390fd5b6002805490508251146116ef576040517f08c379a00000000000000000000000000000000000000000000000000000000081526004016116e690613b52565b60405180910390fd5b60005b8251811015611a1d5760018382815181106117105761170f61372a565b5b602002602001015110158015611741575060048382815181106117365761173561372a565b5b602002602001015111155b806117665750606483828151811061175c5761175b61372a565b5b6020026020010151145b6117a5576040517f08c379a000000000000000000000000000000000000000000000000000000000815260040161179c90613c0a565b60405180910390fd5b6000600282815481106117bb576117ba61372a565b5b906000526020600020906002020160010180549050141561182457600281815481106117ea576117e961372a565b5b9060005260206000209060020201600101600090806001815401808255809150506001900390600052602060002001600090919091909150555b60648382815181106118395761183861372a565b5b6020026020010151146119c55760006002828154811061185c5761185b61372a565b5b90600052602060002090600202016001016001600284815481106118835761188261372a565b5b9060005260206000209060020201600101805490506118a29190613c2a565b815481106118b3576118b261372a565b5b9060005260206000200154141561195d578281815181106118d7576118d661372a565b5b6020026020010151600282815481106118f3576118f261372a565b5b906000526020600020906002020160010160016002848154811061191a5761191961372a565b5b9060005260206000209060020201600101805490506119399190613c2a565b8154811061194a5761194961372a565b5b90600052602060002001819055506119c4565b600281815481106119715761197061372a565b5b90600052602060002090600202016001018382815181106119955761199461372a565b5b602002602001015190806001815401808255809150506001900390600052602060002001600090919091909150555b5b816001018382815181106119dc576119db61372a565b5b602002602001015190806001815401808255809150506001900390600052602060002001600090919091909150558080611a15906137e9565b9150506116f2565b5060018160000160006101000a81548160ff0219169083151502179055506001806000828254611a4d9190613c5e565b925050819055507f16a9aa39af49f169911e977347975198c503525f7240d6892a626f0227642fce33604051611a839190613379565b60405180910390a15050565b606060006060600060028054905067ffffffffffffffff811115611ab657611ab561342f565b5b604051908082528060200260200182016040528015611ae45781602001602082028036833780820191505090505b50905060006002905060005b600280549050811015611c02578160028281548110611b1257611b1161372a565b5b9060005260206000209060020201600101805490501015611b53576000838281518110611b4257611b4161372a565b5b602002602001018181525050611bef565b611bcf60028281548110611b6a57611b6961372a565b5b9060005260206000209060020201600101805480602002602001604051908101604052809291908181526020018280548015611bc557602002820191906000526020600020905b815481526020019060010190808311611bb1575b50505050506129cc565b838281518110611be257611be161372a565b5b6020026020010181815250505b8080611bfa906137e9565b915050611af0565b50600060028054905067ffffffffffffffff811115611c2457611c2361342f565b5b604051908082528060200260200182016040528015611c525781602001602082028036833780820191505090505b50905060005b6002805490508110156127b25760006001905060005b60028054905081101561275457858381518110611c8e57611c8d61372a565b5b6020026020010151868281518110611ca957611ca861372a565b5b60200260200101511115611cca578180611cc2906137e9565b925050612741565b858381518110611cdd57611cdc61372a565b5b6020026020010151868281518110611cf857611cf761372a565b5b6020026020010151141561274057611d8260028481548110611d1d57611d1c61372a565b5b9060005260206000209060020201600101805480602002602001604051908101604052809291908181526020018280548015611d7857602002820191906000526020600020905b815481526020019060010190808311611d64575b5050505050612b75565b611dfe60028581548110611d9957611d9861372a565b5b9060005260206000209060020201600101805480602002602001604051908101604052809291908181526020018280548015611df457602002820191906000526020600020905b815481526020019060010190808311611de0575b5050505050612bfb565b108015611f005750611e8260028281548110611e1d57611e1c61372a565b5b9060005260206000209060020201600101805480602002602001604051908101604052809291908181526020018280548015611e7857602002820191906000526020600020905b815481526020019060010190808311611e64575b5050505050612b75565b611efe60028381548110611e9957611e9861372a565b5b9060005260206000209060020201600101805480602002602001604051908101604052809291908181526020018280548015611ef457602002820191906000526020600020905b815481526020019060010190808311611ee0575b5050505050612bfb565b115b15611f18578180611f10906137e9565b92505061273f565b611f9460028481548110611f2f57611f2e61372a565b5b9060005260206000209060020201600101805480602002602001604051908101604052809291908181526020018280548015611f8a57602002820191906000526020600020905b815481526020019060010190808311611f76575b5050505050612b75565b61201060028581548110611fab57611faa61372a565b5b906000526020600020906002020160010180548060200260200160405190810160405280929190818152602001828054801561200657602002820191906000526020600020905b815481526020019060010190808311611ff2575b5050505050612bfb565b11801561211257506120946002828154811061202f5761202e61372a565b5b906000526020600020906002020160010180548060200260200160405190810160405280929190818152602001828054801561208a57602002820191906000526020600020905b815481526020019060010190808311612076575b5050505050612b75565b612110600283815481106120ab576120aa61372a565b5b906000526020600020906002020160010180548060200260200160405190810160405280929190818152602001828054801561210657602002820191906000526020600020905b8154815260200190600101908083116120f2575b5050505050612bfb565b105b1561211c5761273e565b612198600284815481106121335761213261372a565b5b906000526020600020906002020160010180548060200260200160405190810160405280929190818152602001828054801561218e57602002820191906000526020600020905b81548152602001906001019080831161217a575b5050505050612b75565b612214600285815481106121af576121ae61372a565b5b906000526020600020906002020160010180548060200260200160405190810160405280929190818152602001828054801561220a57602002820191906000526020600020905b8154815260200190600101908083116121f6575b5050505050612bfb565b111580156123185750612299600282815481106122345761223361372a565b5b906000526020600020906002020160010180548060200260200160405190810160405280929190818152602001828054801561228f57602002820191906000526020600020905b81548152602001906001019080831161227b575b5050505050612b75565b612315600283815481106122b0576122af61372a565b5b906000526020600020906002020160010180548060200260200160405190810160405280929190818152602001828054801561230b57602002820191906000526020600020905b8154815260200190600101908083116122f7575b5050505050612bfb565b11155b1561242f57612399600282815481106123345761233361372a565b5b906000526020600020906002020160010180548060200260200160405190810160405280929190818152602001828054801561238f57602002820191906000526020600020905b81548152602001906001019080831161237b575b5050505050612c81565b612415600285815481106123b0576123af61372a565b5b906000526020600020906002020160010180548060200260200160405190810160405280929190818152602001828054801561240b57602002820191906000526020600020905b8154815260200190600101908083116123f7575b5050505050612c81565b111561242a578180612426906137e9565b9250505b61273d565b6124ab600284815481106124465761244561372a565b5b90600052602060002090600202016001018054806020026020016040519081016040528092919081815260200182805480156124a157602002820191906000526020600020905b81548152602001906001019080831161248d575b5050505050612b75565b612527600285815481106124c2576124c161372a565b5b906000526020600020906002020160010180548060200260200160405190810160405280929190818152602001828054801561251d57602002820191906000526020600020905b815481526020019060010190808311612509575b5050505050612bfb565b11801561262957506125ab600282815481106125465761254561372a565b5b90600052602060002090600202016001018054806020026020016040519081016040528092919081815260200182805480156125a157602002820191906000526020600020905b81548152602001906001019080831161258d575b5050505050612b75565b612627600283815481106125c2576125c161372a565b5b906000526020600020906002020160010180548060200260200160405190810160405280929190818152602001828054801561261d57602002820191906000526020600020905b815481526020019060010190808311612609575b5050505050612bfb565b115b1561273c576126aa600282815481106126455761264461372a565b5b90600052602060002090600202016001018054806020026020016040519081016040528092919081815260200182805480156126a057602002820191906000526020600020905b81548152602001906001019080831161268c575b5050505050612d08565b612726600285815481106126c1576126c061372a565b5b906000526020600020906002020160010180548060200260200160405190810160405280929190818152602001828054801561271c57602002820191906000526020600020905b815481526020019060010190808311612708575b5050505050612d08565b101561273b578180612737906137e9565b9250505b5b5b5b5b5b5b808061274c906137e9565b915050611c6e565b50600085838151811061276a5761276961372a565b5b6020026020010151141561277e5761271090505b808383815181106127925761279161372a565b5b6020026020010181815250505080806127aa906137e9565b915050611c58565b50600060028054905067ffffffffffffffff8111156127d4576127d361342f565b5b60405190808252806020026020018201604052801561280757816020015b60608152602001906001900390816127f25790505b50905060005b6002805490508110156128f9576002818154811061282e5761282d61372a565b5b9060005260206000209060020201600001805461284a90613788565b80601f016020809104026020016040519081016040528092919081815260200182805461287690613788565b80156128c35780601f10612898576101008083540402835291602001916128c3565b820191906000526020600020905b8154815290600101906020018083116128a657829003601f168201915b50505050508282815181106128db576128da61372a565b5b602002602001018190525080806128f1906137e9565b91505061280d565b506000612906828a612dea565b905061292b85828151811061291e5761291d61372a565b5b6020026020010151612e91565b97508281815181106129405761293f61372a565b5b602002602001015196506002818154811061295e5761295d61372a565b5b90600052602060002090600202016001018054806020026020016040519081016040528092919081815260200182805480156129b957602002820191906000526020600020905b8154815260200190600101908083116129a5575b5050505050955050505050509193909250565b6000808251905060008114156129e6576000915050612b70565b60006002826129f59190613ce3565b9050600084905060005b83811015612b085760008190506000600183612a1b9190613c5e565b90505b85811015612a7957838281518110612a3957612a3861372a565b5b6020026020010151848281518110612a5457612a5361372a565b5b60200260200101511015612a66578091505b8080612a71906137e9565b915050612a1e565b506000838281518110612a8f57612a8e61372a565b5b60200260200101519050838381518110612aac57612aab61372a565b5b6020026020010151848381518110612ac757612ac661372a565b5b60200260200101818152505080848481518110612ae757612ae661372a565b5b60200260200101818152505050508080612b00906137e9565b9150506129ff565b506000600284612b189190613d14565b1415612b4f5780600183612b2c9190613c2a565b81518110612b3d57612b3c61372a565b5b60200260200101519350505050612b70565b808281518110612b6257612b6161372a565b5b602002602001015193505050505b919050565b600080600090506000612b87846129cc565b905060005b8451811015612bd857848181518110612ba857612ba761372a565b5b60200260200101518210612bc5578280612bc1906137e9565b9350505b8080612bd0906137e9565b915050612b8c565b508351606483612be89190613d45565b612bf29190613ce3565b92505050919050565b600080600090506000612c0d846129cc565b905060005b8451811015612c5e57848181518110612c2e57612c2d61372a565b5b60200260200101518211612c4b578280612c47906137e9565b9350505b8080612c56906137e9565b915050612c12565b508351606483612c6e9190613d45565b612c789190613ce3565b92505050919050565b600080600090506000612c93846129cc565b905060005b8451811015612ce557848181518110612cb457612cb361372a565b5b6020026020010151821115612cd2578280612cce906137e9565b9350505b8080612cdd906137e9565b915050612c98565b508351606483612cf59190613d45565b612cff9190613ce3565b92505050919050565b600080600090506000612d1a846129cc565b905060005b8451811015612d6c57848181518110612d3b57612d3a61372a565b5b6020026020010151821015612d59578280612d55906137e9565b9350505b8080612d64906137e9565b915050612d1f565b508351606483612d7c9190613d45565b612d869190613ce3565b92505050919050565b600080600090505b8351811015612dde5782848281518110612db457612db361372a565b5b60200260200101511415612dcb5780915050612de4565b8080612dd6906137e9565b915050612d97565b50825190505b92915050565b600080600090505b8351811015612e855782604051602001612e0c9190613ddb565b60405160208183030381529060405280519060200120848281518110612e3557612e3461372a565b5b6020026020010151604051602001612e4d9190613ddb565b604051602081830303815290604052805190602001201415612e725780915050612e8b565b8080612e7d906137e9565b915050612df2565b50825190505b92915050565b60606000821415612ed9576040518060400160405280600181526020017f30000000000000000000000000000000000000000000000000000000000000008152509050612fff565b600082905060005b60008214612f0b578080612ef4906137e9565b915050600a82612f049190613ce3565b9150612ee1565b60008167ffffffffffffffff811115612f2757612f2661342f565b5b6040519080825280601f01601f191660200182016040528015612f595781602001600182028036833780820191505090505b50905060008290505b60008614612ff757600181612f779190613c2a565b90506000600a87612f889190613d14565b6030612f949190613c5e565b905060008160f81b905080848481518110612fb257612fb161372a565b5b60200101907effffffffffffffffffffffffffffffffffffffffffffffffffffffffffffff1916908160001a905350600a88612fee9190613ce3565b97505050612f62565b819450505050505b919050565b60008115159050919050565b61301981613004565b82525050565b60006020820190506130346000830184613010565b92915050565b600081519050919050565b600082825260208201905092915050565b6000819050602082019050919050565b600081519050919050565b600082825260208201905092915050565b60005b838110156130a0578082015181840152602081019050613085565b838111156130af576000848401525b50505050565b6000601f19601f8301169050919050565b60006130d182613066565b6130db8185613071565b93506130eb818560208601613082565b6130f4816130b5565b840191505092915050565b600061310b83836130c6565b905092915050565b6000602082019050919050565b600061312b8261303a565b6131358185613045565b93508360208202850161314785613056565b8060005b85811015613183578484038952815161316485826130ff565b945061316f83613113565b925060208a0199505060018101905061314b565b50829750879550505050505092915050565b600081519050919050565b600082825260208201905092915050565b6000819050602082019050919050565b6000819050919050565b6131d4816131c1565b82525050565b60006131e683836131cb565b60208301905092915050565b6000602082019050919050565b600061320a82613195565b61321481856131a0565b935061321f836131b1565b8060005b8381101561325057815161323788826131da565b9750613242836131f2565b925050600181019050613223565b5085935050505092915050565b600060608201905081810360008301526132778186613120565b9050818103602083015261328b81856131ff565b9050818103604083015261329f81846131ff565b9050949350505050565b6000604051905090565b600080fd5b600080fd5b600073ffffffffffffffffffffffffffffffffffffffff82169050919050565b60006132e8826132bd565b9050919050565b6132f8816132dd565b811461330357600080fd5b50565b600081359050613315816132ef565b92915050565b600060208284031215613331576133306132b3565b5b600061333f84828501613306565b91505092915050565b6000602082019050818103600083015261336281846131ff565b905092915050565b613373816132dd565b82525050565b600060208201905061338e600083018461336a565b92915050565b600082825260208201905092915050565b60006133b082613066565b6133ba8185613394565b93506133ca818560208601613082565b6133d3816130b5565b840191505092915050565b600060208201905081810360008301526133f881846133a5565b905092915050565b613409816131c1565b82525050565b60006020820190506134246000830184613400565b92915050565b600080fd5b7f4e487b7100000000000000000000000000000000000000000000000000000000600052604160045260246000fd5b613467826130b5565b810181811067ffffffffffffffff821117156134865761348561342f565b5b80604052505050565b60006134996132a9565b90506134a5828261345e565b919050565b600067ffffffffffffffff8211156134c5576134c461342f565b5b602082029050602081019050919050565b600080fd5b6134e4816131c1565b81146134ef57600080fd5b50565b600081359050613501816134db565b92915050565b600061351a613515846134aa565b61348f565b9050808382526020820190506020840283018581111561353d5761353c6134d6565b5b835b81811015613566578061355288826134f2565b84526020840193505060208101905061353f565b5050509392505050565b600082601f8301126135855761358461342a565b5b8135613595848260208601613507565b91505092915050565b6000602082840312156135b4576135b36132b3565b5b600082013567ffffffffffffffff8111156135d2576135d16132b8565b5b6135de84828501613570565b91505092915050565b600080fd5b600067ffffffffffffffff8211156136075761360661342f565b5b613610826130b5565b9050602081019050919050565b82818337600083830152505050565b600061363f61363a846135ec565b61348f565b90508281526020810184848401111561365b5761365a6135e7565b5b61366684828561361d565b509392505050565b600082601f8301126136835761368261342a565b5b813561369384826020860161362c565b91505092915050565b6000602082840312156136b2576136b16132b3565b5b600082013567ffffffffffffffff8111156136d0576136cf6132b8565b5b6136dc8482850161366e565b91505092915050565b600060608201905081810360008301526136ff81866133a5565b905061370e6020830185613400565b818103604083015261372081846131ff565b9050949350505050565b7f4e487b7100000000000000000000000000000000000000000000000000000000600052603260045260246000fd5b7f4e487b7100000000000000000000000000000000000000000000000000000000600052602260045260246000fd5b600060028204905060018216806137a057607f821691505b602082108114156137b4576137b3613759565b5b50919050565b7f4e487b7100000000000000000000000000000000000000000000000000000000600052601160045260246000fd5b60006137f4826131c1565b91507fffffffffffffffffffffffffffffffffffffffffffffffffffffffffffffffff821415613827576138266137ba565b5b600182019050919050565b7f43616c6c6572206973206e6f7420746865206f776e65722e0000000000000000600082015250565b6000613868601883613394565b915061387382613832565b602082019050919050565b600060208201905081810360008301526138978161385b565b9050919050565b7f5468697320766f74657220686173206e6f7420766f746564207965742e000000600082015250565b60006138d4601d83613394565b91506138df8261389e565b602082019050919050565b60006020820190508181036000830152613903816138c7565b9050919050565b7f57652063616e6e6f742064657465726d696e65207468652077696e6e6572206460008201527f756520746f20746f6f2066657720766f746573206f7220746f6f206d616e792060208201527f61627374656e74696f6e732e0000000000000000000000000000000000000000604082015250565b600061398c604c83613394565b91506139978261390a565b606082019050919050565b600060208201905081810360008301526139bb8161397f565b9050919050565b7f596f752068617665206e6f7420766f746564207965742e000000000000000000600082015250565b60006139f8601783613394565b9150613a03826139c2565b602082019050919050565b60006020820190508181036000830152613a27816139eb565b9050919050565b7f5468697320766f74652068617320616c726561647920656e6465642e00000000600082015250565b6000613a64601c83613394565b9150613a6f82613a2e565b602082019050919050565b60006020820190508181036000830152613a9381613a57565b9050919050565b7f416c726561647920766f7465642e000000000000000000000000000000000000600082015250565b6000613ad0600e83613394565b9150613adb82613a9a565b602082019050919050565b60006020820190508181036000830152613aff81613ac3565b9050919050565b7f496e76616c6964206e756d626572206f662073636f7265732e00000000000000600082015250565b6000613b3c601983613394565b9150613b4782613b06565b602082019050919050565b60006020820190508181036000830152613b6b81613b2f565b9050919050565b7f54686520706f696e74206d757374206265206265747765656e203120616e642060008201527f342e20496620796f752077616e7420746f206162737461696e2c20656e74657260208201527f203130302e000000000000000000000000000000000000000000000000000000604082015250565b6000613bf4604583613394565b9150613bff82613b72565b606082019050919050565b60006020820190508181036000830152613c2381613be7565b9050919050565b6000613c35826131c1565b9150613c40836131c1565b925082821015613c5357613c526137ba565b5b828203905092915050565b6000613c69826131c1565b9150613c74836131c1565b9250827fffffffffffffffffffffffffffffffffffffffffffffffffffffffffffffffff03821115613ca957613ca86137ba565b5b828201905092915050565b7f4e487b7100000000000000000000000000000000000000000000000000000000600052601260045260246000fd5b6000613cee826131c1565b9150613cf9836131c1565b925082613d0957613d08613cb4565b5b828204905092915050565b6000613d1f826131c1565b9150613d2a836131c1565b925082613d3a57613d39613cb4565b5b828206905092915050565b6000613d50826131c1565b9150613d5b836131c1565b9250817fffffffffffffffffffffffffffffffffffffffffffffffffffffffffffffffff0483118215151615613d9457613d936137ba565b5b828202905092915050565b600081905092915050565b6000613db582613066565b613dbf8185613d9f565b9350613dcf818560208601613082565b80840191505092915050565b6000613de78284613daa565b91508190509291505056fea264697066735822122094baccef44832d19b2cfe988886e9ac60121b9b7204f5f609be526497f8b95c664736f6c63430008090033",
  "linkReferences": {},
  "deployedLinkReferences": {}
}